:040000008031122811
:100008007E14803120007F08FD00121D0D288231EA
:10001800BB227D082000FF007E10090080311428D3
:100028008631EE268031E4008631EF268031E50006
:100038008631F0268031E6008631F1268031E700EE
:10004800303084000030850034308631E8267E1058
:10005800200086319A2EC8348034BB3480348D34E5
:1000680080340634A034FF3409340134A134013417
:1000780009340134153400342634FF34003475341F
:100088000834953408348134023409340134153481
:1000980000342634FF340034753408349534083479
:1000A8009134023409340234153400342634FF34D0
:1000B80000347534083495340834B1340234C0340B
:1000C8000934023429340034013401340034A034B2
:1000D8003234093404340034003402340334003434
:1000E800003400340934213411340134003401342B
:1000F80022342F340034073405348134033408346F
:10010800003401340734053401340334083400342E
:1001180001341C3403343134363446343134343405
:10012800353435342034473465346E3465347234AC
:1001380069346334203448344934443420344434F2
:1001480065347634693463346534123401340034E8
:1001580002340034003400340834D8340434A5346C
:1001680001340134003401340234003401340D34D4
:1001780003344434493459342034443465347634AF
:100188006934633465347334033403340934F40153
:100198002000B901F4017408031D08001E30F000A6
:1001A8007408993E86000E30870070088100743507
:1001B8000907023E643E860087010108F0007408C2
:1001C800F1000230F135FF3E031DE6287135093E86
:1001D800203E860087017008810074350907033EB8
:1001E800643E860087010108F0000030F1007408C1
:1001F800F2000230F235FF3E031DFE2872350A3E3A
:10020800203E860087017008C03F7108C13F8830D2
:10021800F0007408F1000230F135FF3E031D10298B
:100228007135083E203E86008701700881007408F9
:10023800F0000130F035890B1E290314700D643E5F
:10024800860087010108F1000030F2007408F3000D
:100258000230F335FF3E031D2D2973350E3E203E37
:10026800860087017108C03F7208C13F4030F00026
:100278007408F1000230F135FF3E031D3F29713546
:100288000C3E203E86008701700881000130F00096
:100298007008F407CF280030200033020830031913
:1002A800320203185C293308F4003208F30060298D
:1002B8000830F3000030F400FC30F0007008A405AA
:1002C80074080339F0007008A4047308F00070087B
:1002D800A5004930A6000030A7007309F000740992
:1002E800F100F00A0319F10A32087007B200330866
:1002F800713DB3004930F0007008BD003F03031D95
:10030800A929F2017208F000F10174087102031DB5
:100318008F29730870020318080030088400310818
:1003280085000008F0003D088600870170088100FC
:100338000130B0070030B13D0130F0007008BD0752
:100348000130F0007008F2078629F2017208F00007
:10035800F10174087102031DB329730870020318B0
:1003680008003E08860087010108F0003D08860065
:100378008701700881000130F0007008BE07013065
:10038800F0007008BD070130F0007008F207AA29D4
:100398001F3020004005F0007003031D08004408CA
:1003A800031D08004108F0007008F20006307206CC
:1003B800031DFE294308F0007008F1002130710682
:1003C800031DEE29BB01BB0A6D30B0008030B100BF
:1003D8002030F92922307106031DFE29BB01BB0A12
:1003E8003530B0008030B1002F30B2000030B3009B
:1003F800BF01BF0A60304005F00020307006031DC1
:10040800080072030319080009307206031D112A37
:10041800B801B80ABB01BB0A080002307206031D06
:10042800212ABB01BB0A6230F0007008BE0001300F
:10043800B2000030B300BF0108000A307206031D85
:100448002C2ABB01BB0A4308F0007008E200080030
:1004580003307206031D3C2ABB01BB0A6330F0005F
:100468007008BE000130B2000030B300BF010800C0
:100478000B307206031D0800BB01BB0A4208F000DE
:100488007008E300080020004108F6007608F7002D
:1004980040086039031D080005307706031D5F2AF0
:1004A800BB01BB0A0430F6007608B7004208F60024
:1004B8007608B600080006307706031D662A8431E0
:1004C8004224080009307706031D802A2000BB015A
:1004D800BB0A4208F6007608E1006108031D792A84
:1004E8000430F6007608B70008000530F6007608F4
:1004F800B7008031CB20080008307706031D912A09
:100508002000BB01BB0A6130F6007608BE0001304E
:10051800B2000030B300BF0108007708031D972A16
:10052800853146250800770303199E2A033077068C
:10053800031DA12A8331842308000A307706031D8E
:10054800B32A2000BB01BB0AC9014930F60076086E
:10055800BE000130B2000030B300BF0108000B300C
:100568007706031D08002000BB01BB0A0800200015
:100578003708031DC42A3D0090012000121108000D
:100588003D001019121DD02A8631D8268231FB3041
:10059800FC007C083D0090058E1CD62A90012000A6
:1005A800121108001018121CE12A86312F268231F8
:1005B800FE30FC007C083D009005101A121EEC2A43
:1005C8008631E0268231EF30FC007C083D00900542
:1005D800101B121FF72A8631F6268231BF30FC0025
:1005E8007C083D009005901A921E022B8631C72682
:1005F8008231DF30FC007C083D0090059018921C89
:100608000B2B90109301FD30FC007C089005033003
:10061800200037020318152B3D009001200012110D
:1006280008003D009019921D202B8331E423F730F8
:10063800FC007C083D0090052000121108007F3066
:10064800F80078082000A4057F30F8007808A00595
:10065800B501BB01B801B201B30182314722833130
:100668008131CC21833120003B08031D472B083002
:10067800A1004030A2000030A3008430F8007808C0
:10068800A00084306C2BC01F702B33084702031D59
:100698004F2B320846020318552B4708B30046086B
:1006A800B20081314F2183310230F80078082000F0
:1006B800B5000830A1004030A2000030A30080300F
:1006C800F8007808A0004930A6000030A700C8301C
:1006D800F8007808A400812BB501B50AA501C83037
:1006E800F8007808A4000830A1004930A2000030C2
:1006F800A300C830F8007808A0003D000E120800DA
:10070800200040081F39F0007008F2004208F0008D
:100718007008F3007208031D9F2B7303031D080064
:10072800BB01BB0A03304106031D9D2BBA01BA0A5F
:100738000800BA01080002307206031D08004408C8
:100748000F39F0007008F40044088039F000700890
:10075800F5007308031D0800740803190800BB019D
:10076800BB0A7408F0000230F035FF3E031DB82BB9
:100778007035203EF1007108BD0075080319C82BBB
:100788000430F0007008BD0703304106031DD42B68
:100798008430F0003D088600870170088100080059
:1007A8007503031DDC2B3D088600870181010800C5
:1007B8008830F0003D088600870170088100080035
:1007C8003D000F08031D122C20002008F9000230FC
:1007D800F936890BEC2B79080F39FA007A08FB00F7
:1007E8000D307B06031DFB2B8331232308002000DB
:1007F8003503031D0F2C85319A2583312000201FD6
:100808000A2C8830F9007908A0000800C830F900DF
:100818007908A00008008631B926080004303D0098
:100828000F06031D08001608031D2A2C043020009B
:100838003706031D2A2C42083D0096001608031DA2
:100848002A2C0330F90079082000B7000230200074
:100858003506031D3F2C81314F2183312000241F91
:100868003A2C8830F9007908A4000800C830F9004B
:100878007908A40008008631B926080080302000D5
:100888004006031D08004308F0007008F400420801
:10089800F0007008F3007403031D5F2CBB01BB0A52
:1008A800A930B0008030B1001230B2000030B3007F
:1008B800BF01BF0A080002307406031D702CBB017B
:1008C800BB0A6430B0008030B1002930B20000307B
:1008D800B300BF01BF0A080003307406031D0800F7
:1008E800BB01BB0A03307302031C7E2CC830B00066
:1008F80080308C2C7308F000F101F035F10D2F30A9
:10090800700784008030713D8500003FB000013FD2
:10091800B10030088400310885000008F000F101BA
:100928007008B2007108B300BF01BF0A08002000B8
:10093800EA006A08E8000230E835FF3E031DA02CF3
:100948006835083E203E86008701811B08006A350D
:100958000907023E643E860087010108E8006A082C
:10096800E9000230E935FF3E031DB62C6935093E22
:10097800203E86008701680881006A08E800023086
:10098800E835FF3E031DC42C6835083E203E86002E
:100998008701011FE02C8830E8006A08E90002306E
:1009A800E935FF3E031DD42C6935083E203E8600FC
:1009B8008701680881000800C830E8006A08E90073
:1009C8000230E935FF3E031DE52C6935083E203E1F
:1009D800860087016808810008002000EA006A088C
:1009E800E8000230E835FF3E031DF62C68350C3E62
:1009F800203E86008701811B08006A350907643E8E
:100A0800860087010108E8006A08E9000230E93534
:100A1800FF3E031D0B2D69350D3E203E86008701E4
:100A2800680881006A08E8000230E835FF3E031DC7
:100A3800192D68350C3E203E86008701011F352D93
:100A48008830E8006A08E9000230E935FF3E031DF6
:100A5800292D69350C3E203E8600870168088100F3
:100A68000800C830E8006A08E9000230E935FF3EAE
:100A7800031D3A2D69350C3E203E86008701680823
:100A880081000800200040081F39F0007008F400B9
:100A9800C901CA017408031D5B2DBB01BB0A3C08D0
:100AA800031D49143A0803198D2DC9148D2D74039B
:100AB800031D612DBB01BB0A8D2D02307406031D79
:100AC8008D2D44080F39F0007008F2004408803971
:100AD800F0007008F300BB01BB0A7208F000023096
:100AE800F035FF3E031D742D7035203EF10071086E
:100AF800BD0073080319842D0430F0007008BD0789
:100B08003D0886008701011D8D2D0130F000700819
:100B1800C9003B08031908004930F0007008BE00FE
:100B28000230B2000030B300BF01080003302000DB
:100B38002005F0007008F4002108F300730832075C
:100B4800B2007408333DB3004930F0007008BE00AD
:100B5800F101F20174087202031DB42D73087102C9
:100B6800031808003E08860087010108F0003D08C8
:100B780086008701700881000130F0007008BE0708
:100B88000130F0007008BD070130F1070030F23D78
:100B9800AE2D2000E90069080319D42D00300800A3
:100BA8006908E8000230E835FF3E031DD72D683597
:100BB800083E203E86008701811BF02D6908E80069
:100BC8000230E835FF3E031DE52D6835093E203E1D
:100BD80086008701010808000030080080302000E6
:100BE800E8006808D90000300E190130DA0000303A
:100BF8008E190130DB000330E8006808E90008308E
:100C08006902031808006908593E860087018101B6
:100C18000130E8006808E907032E05302000370690
:100C2800031D1C2E3D008E181C2E86318826863109
:100C3800003020000E1901303406031908008531F0
:100C4800F225863100308431F124003020000E195D
:100C58000130B40008003D00930190019F309700D7
:100C68007B309200960116309800901D3D2E901111
:100C7800392E0E128631B9262000BA01BC01E101D5
:100C88000330F1007108B70008003D008E19522E9C
:100C98008E0192018E152000B701B70A3D008E1A09
:100CA800522E900192011214121602302000E80010
:100CB8006808B7000800803020005106031D672E21
:100CC8008531F2258631813020005106031D080048
:100CD8008E1D702E8E11712E8E158531F22508000D
:100CE80023008C018E0121009801FC30990090307E
:100CF80027009B00C3302100950004308E0022009D
:100D08008E012000B401080000308531CD258631E0
:100D1800003A0319080086315F2686310030843195
:100D28009B24863100308431F124080086317426F2
:100D380086318631AA268631863149268631863122
:100D4800D0268631863111268631A62E14303D00F4
:100D580091002000B701BA01E1013D00960193011D
:100D68008631F2263D000E1208002000B501083039
:100D7800A1004030A2000030A3008830F0007008C5
:100D8800A000A40108003D00181CCE2E8631B9260B
:100D98003D001810901208004B303D0092000B17D0
:100DA8008B172100121508003D008E101211FB3020
:100DB800F0007008900508003D001215EF30F000B3
:100DC800700890058E140800640080010131890BB9
:100DD800E92E003408345934083451343D000E17D4
:0A0DE8000E1308003D001013080070
:020000040001F9
:04000E00A4CFCFDFCD
:00000001FF
